:03000000020D8B63
:0C0D8B00787FE4F6D8FD758115020D9705
:100D7A003F065B4F666D7D077F6F777C395E7971C1
:010D8A000068
:0F0D6000C2B77FC67E07120D6FD2B77F0A7E0023
:0B0D6F00EF1FAC0670011E4C70F62256
:100D4400758901758CD8758AF0D28CD2A9D2AFD2AC
:0C0D5400A8D2AAD288D28AD2B8D2BA2281
:100B8E00E4FDEDC39408748094805067EDB40800C2
:100B9E00504D900BA7F8282873020BBF020BC3020F
:100BAE000BCB020BCF020BD7020BDB020BE3020BBC
:100BBE00E7D2A28002C2A2D2A3D2A48022D2A28065
:100BCE0002C2A2C2A3D2A48016D2A28002C2A2D214
:100BDE00A3C2A4800AD2A28002C2A2C2A3C2A474DB
:100BEE000C2DF8E6F5807F647E00120D6FE4F58023
:030BFE000D808FD8
:010C010022D0
:10099B00E4F513F512E50A75F00A120CBEFF339558
:1009AB00E0FE747A2FF582740D3EF583E493F51116
:1009BB00E50A75F00A120CBEAFF0EF3395E0FE744A
:1009CB007A2FF582740D3EF583E4932480F510E5C0
:1009DB000B75F00A120CBEFF3395E0FE747A2FF5FF
:1009EB0082740D3EF583E493F50FE50B75F00A1257
:1009FB000CBEAFF0EF3395E0FE747A2FF582740DD9
:100A0B003EF583E4932480F50EE50975F00A120C8C
:100A1B00BEFF3395E0FE747A2FF582740D3EF5839D
:100A2B00E493F50DE50975F00A120CBEAFF0EF3348
:100A3B0095E0FE747A2FF582740D3EF583E493F501
:020A4B000C227B
:100C0200E4F514AF09EF3395E0FEC3EF943CEE64D4
:100C12008094804003E4F509AF09EF3395E0C364A3
:100C2200809480500375093BAF0BEF3395E0FEC310
:100C3200EF943CEE648094804003E4F50BAF0BEF3D
:100C42003395E0C3648094805003750B3BAF0AEF89
:100C52003395E0FEC3EF9418EE648094804003E481
:100C6200F50AAF0AEF3395E0C364809480500375B0
:030C72000A17223C
:1008000075900FAF90EF640F6060120D6BAF90EFBB
:10081000640F604F75900FAF90EF24F5601024FEC9
:10082000601114601324077012751407800D75147D
:100830000B800875140D800375140E7590F0AF9041
:10084000EF2450601024E0601024F06010247070D9
:10085000127470800A74B0800674D0800274E0252F
:1008600014F514AF90EF64F070F9E514120CE00881
:100870009A7708B27B08CA7D089EB708B6BB08CE37
:10088000BD08A2D708BADB08D2DD08AAE708C2EB88
:1008900008DAED08E5EE000008E8050A8042150ACE
:1008A000803E740A250AF50A803674F6250AF50A90
:1008B000802E050B802A150B8026740A250BF50B5C
:1008C000801E74F6250BF50B80160509801215099C
:1008D000800E740A2509F509800674F62509F509C4
:1008E000120C0280037514FF751340751240E50A5F
:1008F00075F00A120CBEFF3395E0FE747A2FF58274
:10090000740D3EF583E493F511E50A75F00A120CB7
:10091000BEAFF0EF3395E0FE747A2FF582740D3E92
:10092000F583E4932480F510E50B75F00A120CBEF4
:10093000FF3395E0FE747A2FF582740D3EF583E463
:1009400093F50FE50B75F00A120CBEAFF0EF33957F
:10095000E0FE747A2FF582740D3EF583E4932480D3
:10096000F50EE50975F00A120CBEFF3395E0FE7432
:100970007A2FF582740D3EF583E493F50DE5097544
:10098000F00A120CBEAFF0EF3395E0FE747A2FF54B
:0B09900082740D3EF583E493F50C2209
:100D0600AF0BEF3395E0FEEF643B4E7030AF09EF6B
:100D16003395E0FEC3EF9432EE64809480401EEF7C
:100D2600943BEE648094805014E50975F002120C31
:0E0D3600BEAFF0EF3395E04F7003120D602258
:0B0D9700120D4412099B120B8E80F815
:03000300020C7577
:100C7500C0E0C0F0C083C082C0D075D000C000C045
:100C850001C002C003C004C005C006C007C2A81247
:100C95000800120B8EE514F470F5F514D2A8D007F0
:100CA500D006D005D004D003D002D001D000D0D0DA
:090CB500D082D083D0F0D0E032EF
:03001300020A4D91
:100A4D00C0E0C0F0C083C082C0D075D000C000C06F
:0D0A5D0001C002C003C004C005C006C007F0
:100A6A0075153BC2A8758CD8758AF005087F647E17
:100A7A0000120D6FE5157005120D60804D12080009
:100A8A00751340751240751140751040750F407509
:100A9A000E40E51575F00A84900D7A93F50DE5156B
:100AAA0075F00A84E5F093F50C120B8EAF08EF335C
:100ABA0095E0FEC3EF9464EE648094804005750867
:0C0ACA00001515E514F470A3F514D2A873
:100AD600D007D006D005D004D003D002D001D00074
:0B0AE600D0D0D082D083D0F0D0E0321E
:03000B00020AF1F5
:100AF100C0E0C0F0C083C082C0D075D000C000C0CB
:100B010001C002C003C004C005C006C007758CD86F
:100B1100758AF00508AF08EF3395E0FEC3EF9464E2
:100B2100EE64809480404B7508000509120D06AFF4
:100B310009EF3395E0FEC3EF943CEE64809480406E
:100B410031750900050BAF0BEF3395E0FEC3EF9450
:100B51003CEE64809480401A750B00050AAF0AEFE1
:100B61003395E0FEC3EF9418EE64809480400375E2
:100B71000A00D007D006D005D004D003D002D0019E
:0D0B8100D000D0D0D082D083D0F0D0E032B0
:100CBE00C2D530F707B2D563F0FF05F030E70CB2BE
:100CCE00D5F4048463F0FF05F080018430D502F47E
:020CDE000422EE
:100CE000D083D082F8E4937012740193700DA3A3A3
:100CF00093F8740193F5828883E4737402936860B7
:060D0000EFA3A3A380DFB6
:00000001FF
